:100000000C945F000C9487000C9487000C9487007C
:100010000C9487000C9487000C9487000C94870044
:100020000C9487000C9487000C9487000C94870034
:100030000C9487000C9487000C9487000C94870024
:100040000C9487080C9487000C9442050C9474055A
:100050000C9487000C9487000C9487000C94870004
:100060000C9487000C948700000000080002010037
:100070000003040700000000000000000102040863
:100080001020408001020408102001020408102002
:10009000040404040404040402020202020203032E
:1000A0000303030300000000250028002B000000CC
:1000B0000000240027002A00A600A405E200112465
:1000C0001FBECFEFD8E0DEBFCDBF11E0A0E0B1E0B2
:1000D000E0E4F8E102C005900D92A238B107D9F72B
:1000E00022E0A2E8B1E001C01D92AA36B207E1F712
:1000F00010E0CCEBD0E004C02297FE010E943C0946
:10010000C83BD107C9F70E94E8050C94130C0C9466
:10011000000026E040E855E260E070E080EC91E00D
:100120000E94E00461E082E00E948E0361E083E0CF
:100130000E948E0361E084E00E948E0361E085E00E
:100140000E948E0361E086E00C948E0362E771E00A
:100150008AEB91E00E94210766E071E084EB91E078
:100160000E9421076AE071E08EEA91E00E94210777
:1001700061E171E088EA91E00E94210764E171E0A9
:1001800082EA91E00E9421076CE171E08CE991E044
:100190000E94210763E271E086E991E00E94210755
:1001A0006AE271E080E991E00E9421076DE571E06B
:1001B0008AE891E00E94210768E571E084E891E017
:1001C0000C94210784E891E00E94B3068AE891E04C
:1001D0000E94B30680E991E00E94B30686E991E0AF
:1001E0000E94B3068CE991E00E94B30682EA91E096
:1001F0000E94B30688EA91E00E94B3068EEA91E07D
:100200000E94B30684EB91E00E94B3068AEB91E072
:100210000C94B3068F929F92AF92BF92CF92DF92CF
:10022000EF92FF92CF93DF93CDB7DEB72C970FB647
:10023000F894DEBF0FBECDBF80E090E00E94B60B09
:10024000982E80EC91E00E94FD03181619060CF020
:100250002BC260EC71E0CE0101960E949906BE01AE
:100260006F5F7F4F8AEB91E00E943707CE010196C6
:100270000E94B30623E030E040E050E06AEB71E01A
:10028000CE0101960E94370864EB71E0CE01019621
:100290000E942408F82ECE0101960E94B306FF208A
:1002A00009F402C2A92CB12C27E030E044E050E070
:1002B0006AEB71E0CE0101960E943708CE010196EB
:1002C0000E947C086B017C01CE0101960E94B3065E
:1002D000892D90E0A0E0B0E0C816D906EA06FB063A
:1002E00009F0ABC12EE030E048E050E06AEB71E08D
:1002F000CE0101960E9437086EEA71E0CE010196A8
:100300000E942408982ECE0101960E94B3069110F7
:10031000ABC12AE030E048E050E06AEB71E0CE018A
:1003200001960E94370868EA71E0CE0101960E94AA
:100330002408982ECE0101960E94B306992081F0E0
:100340004AE0B501CE0107960E946F07BE01695FC2
:100350007F4FCE0101960E944E0763E371E093C187
:100360002FE030E048E050E06AEB71E0CE0101960A
:100370000E94370862EA71E0CE0101960E942408CB
:10038000982ECE0101960E94B3069920F1F123E147
:1003900030E040E150E06AEB71E0CE0101960E944E
:1003A0003708CE0101960E947C084B015C01CE010A
:1003B00001960E94B306C814D904EA04FB04F1F0C4
:1003C00023E130E040E150E06AEB71E0CE010196BC
:1003D0000E943708CE0101960E947C0880E090E0E0
:1003E0000E94BE0BCE0101960E94B30680E090E011
:1003F0000E94B60B682F70E04AE038C168E371E0F4
:1004000080EC91E00E9459064FC12EE030E048E0B8
:1004100050E06AEB71E0CE0101960E9437086CE96A
:1004200071E0CE0101960E942408F82ECE010196BB
:100430000E94B306FF2009F460C021E130E04FE0E4
:1004400050E06AEB71E0CE0101960E943708CE01C0
:1004500001960E947C087093830160938201CE0113
:1004600001960E94B3064AE0B501CE0107960E94AC
:100470006F07BE01695F7F4FCE0101960E944E0754
:100480006FE271E0CE0101960E94DA07BC0180ECB8
:1004900091E00E944706CE0101960E94B306CE016C
:1004A00007960E94B306E0908201F0908301B701A5
:1004B0006170772782E00E94C703B701F7FE02C090
:1004C0006F5F7F4F6695617083E00E94C703B7013D
:1004D000F7FE02C06D5F7F4F62FB662760F984E024
:1004E0000E94C70387E0E80EF11C61E08FE0E81688
:1004F000F10408F460E085E09DC02EE030E048E0C3
:1005000050E06AEB71E0CE0101960E94370866E97F
:1005100071E0CE0101960E942408F82ECE010196CA
:100520000E94B306FF2099F06091820170918301CF
:100530004AE0CE0101960E946F07BE016F5F7F4FB8
:1005400080EC91E00E944706CE010196ABC02BE003
:1005500030E048E050E06AEB71E0CE0101960E9485
:10056000370864E871E0CE0101960E942408F82E55
:10057000CE0101960E94B306FF2011F14AE0B501B9
:10058000CE0107960E946F07BE01695F7F4FCE01C3
:1005900001960E944E0767E571E0CE0101960E9428
:1005A000DA07BC0180EC91E00E944706CE0101967B
:1005B0000E94B306CE0107960E94B30660E039C0E0
:1005C0002AE030E048E050E06AEB71E0CE010196AD
:1005D0000E9437086AE871E0CE0101960E94240863
:1005E000F82ECE0101960E94B306FF2009F45CC0EC
:1005F0004AE0B501CE0107960E946F07BE01695F10
:100600007F4FCE0101960E944E076CE571E0CE014E
:1006100001960E94DA07BC0180EC91E00E94470637
:10062000CE0101960E94B306CE0107960E94B30642
:1006300061E086E00E94C70337C028E030E044E074
:1006400050E06AEB71E0CE0101960E94370860E944
:1006500071E0CE0101960E942408F82ECE01019689
:100660000E94B306FF2001F14AE0B501CE010796D2
:100670000E946F07BE01695F7F4FCE0101960E9405
:100680004E076FE271E0CE0101960E94DA07BC01CD
:1006900080EC91E00E944706CE0101960E94B306CD
:1006A000CE0107960E94B3062C960FB6F894DEBFD3
:1006B0000FBECDBFDF91CF91FF90EF90DF90CF9035
:1006C000BF90AF909F908F900895833081F028F471
:1006D000813099F08230A1F008958730A9F08830F8
:1006E000B9F08430D1F4809180008F7D03C0809177
:1006F00080008F7780938000089584B58F7702C043
:1007000084B58F7D84BD08958091B0008F7703C03C
:100710008091B0008F7D8093B0000895CF93DF93D8
:1007200090E0FC01E458FF4F2491FC01E057FF4F9B
:100730008491882349F190E0880F991FFC01E255CC
:10074000FF4FA591B4918C559F4FFC01C591D49159
:100750009FB7611108C0F8948C91209582238C93E7
:10076000888182230AC0623051F4F8948C91322F30
:10077000309583238C938881822B888304C0F894DE
:100780008C91822B8C939FBFDF91CF9108950F9313
:100790001F93CF93DF931F92CDB7DEB7282F30E0A2
:1007A000F901E859FF4F8491F901E458FF4F149182
:1007B000F901E057FF4F04910023C9F0882321F08D
:1007C00069830E9465036981E02FF0E0EE0FFF1F4F
:1007D000EC55FF4FA591B4919FB7F8948C9161119E
:1007E00003C01095812301C0812B8C939FBF0F9074
:1007F000DF91CF911F910F910895FC01818D228D82
:1008000090E0805C9F4F821B91098F739927089518
:10081000FC01918D828D981731F0828DE80FF11DCA
:10082000858D90E008958FEF9FEF0895FC01918DE5
:10083000828D981761F0828DDF01A80FB11D5D9642
:100840008C91928D9F5F9F73928F90E008958FEFB0
:100850009FEF08958AE995E0892B49F080E090E0C8
:10086000892B29F00E949A0581110C9400000895AB
:10087000FC01848DDF01A80FB11DA35ABF4F2C913D
:10088000848D90E001968F739927848FA689B7890C
:100890002C93A089B1898C9180648C93938D848DE5
:1008A000981306C00288F389E02D80818F7D8083B4
:1008B0000895CF93DF93EC01888D8823C9F0EA89EE
:1008C000FB89808185FD05C0A889B9898C9186FD49
:1008D0000FC00FB607FCF5CF808185FFF2CFA88946
:1008E000B9898C9185FFEDCFCE010E943804E7CF06
:1008F000DF91CF910895CF92DF92FF920F931F93D4
:10090000CF93DF931F92CDB7DEB76C0181E0D601A4
:1009100058968C9358975B969C915B975C968C91BC
:100920005C97981307C05096ED91FC915197808188
:1009300085FD2EC0F601038D10E00F5F1F4F0F7372
:100940001127F02EF601848DF81211C00FB607FCA6
:10095000F9CFD6015096ED91FC915197808185FF9A
:10096000F1CFC60169830E9438046981EBCF838D82
:10097000E80FF11DE35AFF4F6083D6015B960C939D
:100980005B975296ED91FC915397808180620CC0E9
:10099000D6015696ED91FC91579760835096ED9154
:1009A000FC91519780818064808381E090E00F907A
:1009B000DF91CF911F910F91FF90DF90CF9008951D
:1009C000BF92CF92DF92EF92FF92CF93DF93EC0131
:1009D0006A017B01B22EE889F98982E080834115A2
:1009E00081EE580761057105A1F060E079E08DE3C3
:1009F00090E0A70196010E94180921503109410990
:100A000051095695479537952795211580E1380767
:100A100098F0E889F989108260E874E88EE190E046
:100A2000A70196010E941809215031094109510975
:100A30005695479537952795EC85FD853083EE854E
:100A4000FF852083188EEC89FD89B082EA89FB89B5
:100A5000808180618083EA89FB89808188608083CE
:100A6000EA89FB89808180688083EA89FB898081AB
:100A70008F7D8083DF91CF91FF90EF90DF90CF90BB
:100A8000BF9008951F920F920FB60F9211242F93CB
:100A90008F939F93EF93FF93E091D001F091D10159
:100AA0008081E091D601F091D70182FD12C0908142
:100AB0008091D9018F5F8F732091DA01821751F0F5
:100AC000E091D901F0E0E054FE4F958F8093D90179
:100AD00001C08081FF91EF919F918F912F910F9095
:100AE0000FBE0F901F9018951F920F920FB60F9286
:100AF00011242F933F934F935F936F937F938F9323
:100B00009F93AF93BF93EF93FF9380EC91E00E948C
:100B10003804FF91EF91BF91AF919F918F917F9199
:100B20006F915F914F913F912F910F900FBE0F905A
:100B30001F90189580EC91E00E94FD0321E0892B25
:100B400009F420E0822F08951092C3011092C2018F
:100B500088EE93E0A0E0B0E08093C4019093C501DB
:100B6000A093C601B093C70184E691E09093C101C0
:100B70008093C00185EC90E09093CD018093CC01EF
:100B800084EC90E09093CF018093CE0180EC90E0D4
:100B90009093D1018093D00181EC90E09093D301A8
:100BA0008093D20182EC90E09093D5018093D401A0
:100BB00086EC90E09093D7018093D6011092D901F2
:100BC0001092DA011092DB011092DC010895089571
:100BD0000E94DD080E94E7050E948900CAE2D4E075
:100BE0000E940A012097E1F30E942A04F9CFCF92D4
:100BF000DF92EF92FF920F931F93CF93DF936C01DD
:100C00007A01EB01E60EF71E00E010E0CE15DF05DD
:100C100061F06991D601ED91FC910190F081E02D98
:100C2000C6010995080F191FF1CFC801DF91CF91B7
:100C30001F910F91FF90EF90DF90CF900895611575
:100C4000710581F0DB010D900020E9F7AD01415005
:100C50005109461B570BDC01ED91FC910280F38199
:100C6000E02D099480E090E00895DC01ED91FC9185
:100C7000DB0114964D915C9115976D917C910280EA
:100C8000F381E02D099460E771E00C941F060F9347
:100C90001F93CF93DF93EC010E9435068C01CE01A8
:100CA0000E944306800F911FDF91CF911F910F91FA
:100CB00008950F931F93CF93DF93EC010E941F06BB
:100CC0008C01CE010E944306800F911FDF91CF91CE
:100CD0001F910F9108950F931F93CF93DF93EC0112
:100CE0000E94D108688779878A879B87E881F98184
:100CF0000680F781E02DCE01099597FF15C00E946F
:100D0000D108088519852A853B85601B710B820BEC
:100D1000930B0C811D812E813F8160177107820723
:100D2000930720F38FEF9FEFDF91CF911F910F91EA
:100D300008950F931F93CF93DF93EC018B0162E72C
:100D400071E00E942107C8010E946B0697FD05C053
:100D5000682FCE010E94C707F6CFCE01DF91CF9159
:100D60001F910F910895FC01808191810C94D80905
:100D7000CF93DF93EC0188819981009711F00E9455
:100D8000D809198218821D821C821B821A82DF9167
:100D9000CF9108950F931F93CF93DF93EC018B01B5
:100DA0006F5F7F4F888199810E94670A009731F0B9
:100DB000998388831B830A8381E001C080E0DF91EF
:100DC000CF911F910F910895CF93DF93EC0188810C
:100DD0009981892B29F08A819B818617970760F476
:100DE000CE010E94CA06882341F08C819D81892B07
:100DF00019F4E881F981108281E0DF91CF910895A3
:100E0000EF92FF920F931F93CF93DF93EC017B013F
:100E10008A01BA010E94E406811104C0CE010E9439
:100E2000B80607C01D830C83B701888199810E9491
:100E30006A0BCE01DF91CF911F910F91FF90EF9040
:100E40000895FC011182108213821282158214828D
:100E50006115710559F0FB0101900020E9F7AF0120
:100E600041505109461B570B0C9400070895CF932E
:100E7000DF93EC01FB018617970761F060817181B8
:100E80006115710529F0448155810E94000702C057
:100E90000E94B806CE01DF91CF910895FC01118226
:100EA000108213821282158214820C943707CF931A
:100EB000DF93EC016115710561F0FB0101900020E9
:100EC000E9F7AF0141505109461B570B0E9400073B
:100ED00002C00E94B806CE01DF91CF9108950F9312
:100EE0001F93CF93DF93CDB7DEB762970FB6F89419
:100EF000DEBF0FBECDBF8C01CB01F8011182108285
:100F0000138212821582148250E0BE016F5F7F4F00
:100F10000E94710BBE016F5F7F4FC8010E9457078F
:100F200062960FB6F894DEBF0FBECDBFDF91CF91B2
:100F30001F910F910895EF92FF920F931F93CF93FC
:100F4000DF93EC017B010C811D816115710511F4AA
:100F500080E016C04115510591F0040F151FB8012E
:100F60000E94E4068823A1F3288139818C819D8128
:100F7000B701820F931F0E946A0B1D830C8381E0CF
:100F8000DF91CF911F910F91FF90EF900895CF9334
:100F9000DF9300D0CDB7DEB769831A8241E050E01D
:100FA000BE016F5F7F4F0E949B070F900F90DF91F4
:100FB000CF910895CF93DF93EC016115710569F02E
:100FC000FB0101900020E9F7AF0141505109461B98
:100FD000570B0E949B07811103C0CE010E94B806E7
:100FE000CE01DF91CF910895CF93DF93DC01ED9196
:100FF000FC91EB01A881B981309711F01097C9F4E9
:10100000109759F0EB012C813D81232B31F08C910D
:1010100090E091958195910914C0309781F0DC01A1
:1010200014968D919C911597892B49F0808190E0C1
:1010300008C0BD01CF01DF91CF910C94610B80E01E
:1010400090E0DF91CF910895FC0144815581FB012F
:10105000248135814217530741F40E94F40721E0AF
:10106000892B09F020E0822F089580E00895BF9237
:10107000CF92DF92EF92FF920F931F93CF93DF9364
:101080006C017B01EA0189012417350720F48D2FBB
:10109000E901042F182F62E771E0C6010E942107C1
:1010A000D70114968D919C911597C817D907C8F44C
:1010B0008017910708F48C01D701ED91FC911197ED
:1010C000E00FF11FB08010826D917C916C0F7D1F3D
:1010D000C6010E945707D701ED91FC91E00FF11F67
:1010E000B082C601DF91CF911F910F91FF90EF90D9
:1010F000DF90CF90BF900895FC018081918100978F
:1011000011F00C94310B60E070E0CB0108951F9258
:101110000F920FB60F9211242F933F938F939F93AB
:10112000AF93BF9380915E0290915F02A0916002A5
:10113000B091610230915D0223E0230F2D3720F43E
:101140000196A11DB11D05C026E8230F0296A11D21
:10115000B11D20935D0280935E0290935F02A09385
:101160006002B09361028091620290916302A0914B
:101170006402B09165020196A11DB11D80936202C7
:1011800090936302A0936402B0936502BF91AF9104
:101190009F918F913F912F910F900FBE0F901F90B5
:1011A00018952FB7F89460915E0270915F0280915C
:1011B0006002909161022FBF0895789484B5826097
:1011C00084BD84B5816084BD85B5826085BD85B5EB
:1011D000816085BDEEE6F0E0808181608083E1E89A
:1011E000F0E01082808182608083808181608083D2
:1011F000E0E8F0E0808181608083E1EBF0E08081D5
:1012000084608083E0EBF0E0808181608083EAE7A6
:10121000F0E080818460808380818260808380812F
:10122000816080838081806880831092C1000895EE
:10123000A1E21A2EAA1BBB1BFD010DC0AA1FBB1FDA
:10124000EE1FFF1FA217B307E407F50720F0A21B4C
:10125000B30BE40BF50B661F771F881F991F1A94B9
:1012600069F760957095809590959B01AC01BD01E3
:10127000CF010895EE0FFF1F0590F491E02D099422
:10128000CF93DF938230910510F482E090E0E091FB
:101290006802F091690220E030E0A0E0B0E0309711
:1012A00039F14081518148175907B8F0481759075B
:1012B00071F482819381109729F013969C938E93F9
:1012C00012972CC0909369028093680227C0211561
:1012D000310531F04217530718F0A901DB0101C0B5
:1012E000EF019A01BD01DF010280F381E02DD7CF2C
:1012F00021153105F9F0281B390B2430310580F414
:101300008A819B816115710521F0FB0193838283A2
:1013100004C09093690280936802FE01329644C033
:10132000FE01E20FF31F819391932250310939831B
:1013300028833AC02091660230916702232B41F442
:1013400020910201309103013093670220936602DD
:1013500020910001309101012115310541F42DB793
:101360003EB74091040150910501241B350BE091DB
:101370006602F0916702E217F307A0F42E1B3F0B01
:101380002817390778F0AC014E5F5F4F24173507F7
:1013900048F04E0F5F1F509367024093660281939F
:1013A000919302C0E0E0F0E0CF01DF91CF9108958A
:1013B000CF93DF93009709F487C0FC013297138223
:1013C0001282C0916802D0916902209781F4208135
:1013D0003181280F391F8091660290916702821730
:1013E000930779F5F0936702E09366026DC0DE0122
:1013F00020E030E0AE17BF0750F412964D915C919B
:1014000013979D014115510509F1DA01F3CFB3831B
:10141000A28340815181840F951F8A179B0771F425
:101420008D919C911197840F951F029691838083D3
:1014300012968D919C911397938382832115310588
:1014400029F4F0936902E09368023EC0D901139633
:10145000FC93EE9312974D915D91A40FB51FEA177F
:10146000FB0779F480819181840F951F0296D90141
:1014700011969C938E938281938113969C938E9365
:101480001297E0E0F0E08A819B81009719F0FE015D
:10149000EC01F9CFCE01029628813981820F931F8A
:1014A00020916602309167022817390769F4309756
:1014B00029F4109269021092680202C0138212820B
:1014C000D0936702C0936602DF91CF910895A0E0A8
:1014D000B0E0EDE6FAE00C94E00BEC01CB012097D4
:1014E00019F40E944009B8C0FE01E60FF71F9E01E3
:1014F00022503109E217F30708F4ACC0D9010D916D
:101500001C91119706171707B8F00530110508F45C
:101510009FC0A801445051094617570708F498C0C6
:1015200002501109061B170B019311936D937C93C5
:10153000CF010E94D8098CC05B01A01AB10A4E01EC
:10154000800E911EA0916802B0916902612C712CED
:1015500060E070E0109709F449C0A815B905C9F515
:10156000ED90FC901197670142E0C40ED11CCA14A3
:10157000DB0478F147018A189B08640142E0C40E3D
:10158000D11C1296BC9012971396AC91B5E0CB1675
:10159000D10440F0B282A38391828082D9018D93DD
:1015A0009C9309C00E5F1F4F0E0D1F1DF901118383
:1015B0000083EB2DFA2F6115710531F0DB011396D5
:1015C000FC93EE93129744C0F0936902E093680293
:1015D0003FC06D917C9111976616770608F43B0128
:1015E000BD0112960D90BC91A02DB4CF6091660202
:1015F0007091670268157905E9F468167906D0F4E8
:1016000040910001509101014115510541F44DB740
:101610005EB76091040170910501461B570BE417FA
:10162000F507C0F4F0936702E0936602F901918335
:1016300080830EC00E9440097C01009759F0A801E8
:10164000BE010E94580BCE010E94D809C70104C0F8
:10165000CE0102C080E090E0CDB7DEB7EEE00C94A2
:10166000FC0B1F93FC0199278827BC01E89411917A
:101670001032E9F3193010F01E30C8F31B3251F06C
:101680001D3249F4689406C00E94870B610F711DDA
:10169000811D911D119110531A30B0F33EF49095B5
:1016A0008095709561957F4F8F4F9F4F1F91089543
:1016B000FB01DC0102C001900D9241505040D8F76F
:1016C0000895FB01DC018D91019080190110D9F37F
:1016D000990B0895FB01DC0101900D920020E1F7C8
:1016E00008954532510520F4423010F00C947C0BE3
:1016F000FB011082CB010895BB274A3031F49923B6
:1017000022F4BDE2909581959F4F0C949D0B592F2B
:10171000482F372F262F660F771F881F991F660FB8
:10172000771F881F991F620F731F841F951F660FF5
:10173000771F881F991F0895BB27FB015527AA27EC
:10174000880F991FAA1FA41710F0A41B839550514E
:10175000B9F7A05DAA3308F0A95DA193009779F7C6
:10176000B111B1931192CB010C94CC0BF999FECF2E
:1017700092BD81BDF89A992780B50895262FF999D1
:10178000FECF1FBA92BD81BD20BD0FB6F894FA9A64
:10179000F99A0FBE01960895DC01FC01672F719143
:1017A0007723E1F7329704C07C916D937083629147
:1017B000AE17BF07C8F308952F923F924F925F92E2
:1017C0006F927F928F929F92AF92BF92CF92DF9251
:1017D000EF92FF920F931F93CF93DF93CDB7DEB7B6
:1017E000CA1BDB0B0FB6F894DEBF0FBECDBF09944A
:1017F0002A88398848885F846E847D848C849B84A1
:10180000AA84B984C884DF80EE80FD800C811B81AE
:10181000AA81B981CE0FD11D0FB6F894DEBF0FBEDD
:10182000CDBFED01089510E0CCEBD0E004C0FE0187
:101830000E943C092296CE3BD107C9F7F894FFCF0E
:1018400000006A0280004E495800535441545553D9
:1018500000465700434847414444520053455450C2
:101860004F5300474554504F53005343414E002CB3
:101870004F4B002C312E300043686F6F736520642E
:101880006966666572656E742061646472657373FF
:101890002076616C7565002C4F4646002C4F4E003B
:1018A000000000007B04F705FD031604080459043A
:1018B0000D0A006E616E00696E66006F7666002E1E
:0218C000000026
:00000001FF
